:100000000C942A000C943F000C943F000C943F0089
:100010000C943F000C943F000C943F000C943F0064
:100020000C943F000C943F000C943F000C943F0054
:100030000C943F000C943F000C943F000C943F0044
:100040000C943F000C943F000C943F000C943F0034
:100050000C943F0011241FBECFE5D8E0DEBFCDBF1A
:1000600010E0A0E6B0E0EAEFF5E002C005900D92E6
:10007000AE39B107D9F70E9441000C94FB020C94F1
:1000800000000E94AD010E94B8010E94C3010E94BD
:1000900099000E9493000E94F6000E94EF020E94C5
:1000A000E40280E690E00E949E010E94F702C82FC1
:1000B0000E94EB02C13359F40E9452018BE690E09A
:1000C0000E949E010E94B3010E94A000EECFC233A5
:1000D00059F40E94520182E790E00E949E010E9422
:1000E000BE010E94A000E1CFC33359F40E94520127
:1000F00089E790E00E949E010E94C9010E94A00031
:10010000D4CFC43359F40E94520180E890E00E9499
:100110009E010E949B000E94A000C7CF8AE890E049
:100120000E949E01C2CFD39A0895DB9A0895DB986E
:100130000895D29A08959BB384E089278BBB0895D4
:100140000E9495002FEF89E698E121508040904071
:10015000E1F700C000000E9497000895CF93C82FD8
:1001600040E061E081E00E943F0240E062E081E027
:100170000E943F0240E063E081E00E943F028BB3B7
:100180009C2F907F8F70892B8BBB41E063E081E0D7
:100190000E943F028FE99FE00197F1F700C0000045
:1001A00040E063E081E00E943F022BB330E1C39F57
:1001B000C0011124922F9F70892B8BBB41E063E01B
:1001C00081E00E943F028FE99FE00197F1F700C0B4
:1001D000000040E063E081E00E943F028FE19EE486
:1001E0000197F1F700C00000CF91089541E061E070
:1001F00081E00E94CE0141E062E081E00E94CE01F8
:1002000041E063E081E00E94CE0141E064E080E0F3
:100210000E94CE0141E065E080E00E94CE0141E015
:1002200066E080E00E94CE0141E067E080E00E944D
:10023000CE0183E30E94AE0082E30E94AE0088E21A
:100240000E94AE0082E00E94AE008CE00E94AE00F0
:1002500081E00E94AE0086E00E94AE0040E061E0D6
:1002600081E00E943F0240E062E081E00E943F02A4
:1002700040E063E081E00E943F0240E064E080E013
:100280000E943F0240E065E080E00E943F0240E0C3
:1002900066E080E00E943F0240E067E080E00E946C
:1002A0003F02089581E00E94AE000895CF93C82FC9
:1002B00041E061E081E00E943F0240E062E081E0D5
:1002C0000E943F0240E063E081E00E943F028BB366
:1002D0009C2F907F8F70892B8BBB41E063E081E086
:1002E0000E943F028FE99FE00197F1F700C00000F4
:1002F00040E063E081E00E943F022BB330E1C39F06
:10030000C0011124922F9F70892B8BBB41E063E0C9
:1003100081E00E943F028FE99FE00197F1F700C062
:10032000000040E063E081E00E943F028FE19EE434
:100330000197F1F700C00000CF910895CF93DF93AC
:10034000EC018881882331F021960E945601899121
:100350008111FBCFDF91CF91089541E062E082E00F
:100360000E94CE01089562E082E00E94B0020895EA
:1003700041E067E082E00E94CE01089567E082E0FC
:100380000E94B002089541E063E083E00E94CE0144
:10039000089563E083E00E94B0020895442319F0B9
:1003A0004130C9F10895813091F028F08230D9F0C0
:1003B000833029F108952AB381E090E002C0880FCC
:1003C000991F6A95E2F7809582238ABB089527B327
:1003D00081E090E002C0880F991F6A95E2F780954E
:1003E000822387BB089524B381E090E002C0880F88
:1003F000991F6A95E2F78095822384BB089521B303
:1004000081E090E002C0880F991F6A95E2F780951D
:10041000822381BB0895813089F028F08230C9F0B1
:10042000833011F108952AB381E090E002C0880F73
:10043000991F6A95E2F7822B8ABB089527B381E062
:1004400090E002C0880F991F6A95E2F7822B87BB64
:10045000089524B381E090E002C0880F991F6A9547
:10046000E2F7822B84BB089521B381E090E002C0C3
:10047000880F991F6A95E2F7822B81BB0895442368
:1004800019F04130C9F10895813091F028F082309F
:10049000D9F0833029F108952BB381E090E002C0B8
:1004A000880F991F6A95E2F7809582238BBB089588
:1004B00028B381E090E002C0880F991F6A95E2F7A7
:1004C0008095822388BB089525B381E090E002C027
:1004D000880F991F6A95E2F78095822385BB08955E
:1004E00022B381E090E002C0880F991F6A95E2F77D
:1004F0008095822382BB0895813089F028F0823074
:10050000C9F0833011F108952BB381E090E002C06F
:10051000880F991F6A95E2F7822B8BBB089528B349
:1005200081E090E002C0880F991F6A95E2F7822B64
:1005300088BB089525B381E090E002C0880F991F21
:100540006A95E2F7822B85BB089522B381E090E0A3
:1005500002C0880F991F6A95E2F7822B82BB08952B
:10056000813089F028F08230C9F0833011F108958C
:100570002BB381E090E002C0880F991F6A95E2F7E3
:1005800082278BBB089528B381E090E002C0880FDA
:10059000991F6A95E2F7822788BB089525B381E009
:1005A00090E002C0880F991F6A95E2F7822785BB09
:1005B000089522B381E090E002C0880F991F6A95E8
:1005C000E2F7822782BB0895BD9ABE98BF9ABC9A73
:1005D00083E58DB908958FB9779BFECF089588E1A3
:1005E0008AB986E880BD87E689B910BC08955F9B0B
:0A05F000FECF8CB10895F894FFCF00
:1005FA00536D61727420486F6D6500524F4F4D20E4
:10060A003100524F4F4D203200524F4F4D20330090
:10061A004F50454E20444F4F520057726F6E67201D
:0E062A00446174612052656365697665640001
:00000001FF
